:020000040800F2
:1000000048080020ED010008CF2400086D1D0008FD
:10001000CB24000833160008FF340008000000005D
:10002000000000000000000000000000BD270008E4
:10003000371600080000000061260008D1280008DB
:10004000070200080702000807020008070200086C
:10005000070200080702000807020008070200085C
:10006000070200080702000807020008070200084C
:10007000070200080702000807020008070200083C
:10008000070200080702000807020008070200082C
:1000900007020008070200080702000839160008D6
:1000A000070200080702000807020008070200080C
:1000B000112C000807020008CD2C000807020008D8
:1000C00007020008070200080702000807020008EC
:1000D0000702000819310008A131000807020008D2
:1000E00007020008070200080702000807020008CC
:1000F00007020008070200080702000807020008BC
:1001000007020008070200080702000807020008AB
:10011000070200080702000807020008070200089B
:10012000070200080702000807020008070200088B
:1001300000F002F800F04AF80AA090E8000C8244AF
:100140008344AAF10107DA4501D100F03FF8AFF28C
:10015000090EBAE80F0013F0010F18BFFB1A43F0A5
:10016000010318477887000098870000103A24BFE1
:1001700078C878C1FAD8520724BF30C830C144BF0C
:1001800004680C607047000000230024002500264E
:10019000103A28BF78C1FBD8520728BF30C148BFEA
:1001A0000B607047662907F00684642900F084809C
:1001B000002070471FB500F0E9FC0400002000217A
:1001C00006F0E0FAE0601FBD10B510BD00F00AFEB9
:1001D0001146FFF7EFFF05F00DF800F028FE03B41D
:1001E000FFF7F2FF03BC03F0C8FA0000094880479C
:1001F00009480047FEE7FEE7FEE7FEE7FEE7FEE709
:10020000FEE7FEE7FEE7FEE704480549054A064B20
:1002100070470000D528000831010008480200207E
:10022000480800204804002048040020704710B50A
:100230004C1084EA530404D54042C1F1000138BF98
:10024000491E1B4204D55242C3F1000338BF5B1E56
:1002500000F061F914F0804F04D04042C1F1000178
:1002600038BF491E14F0004F04D05242C3F10003BE
:1002700038BF5B1E10BD00000FB4044910B503AABF
:10028000029800F04FFC10BC5DF814FB4000002009
:100290000FB41CB5074B06AA7B446946009005982D
:1002A00000F027FC0020694600F036FC1CBC5DF81D
:1002B00014FB00007D0800002DE9F04106460024F3
:1002C00010687529314616A510D0AFF300800028BC
:1002D00002DA404213A507E031688A0701D512A56A
:1002E00002E0490704D511A5012401E0AFF3008025
:1002F00000210A2206F1240709E0B0FBF2FCB0FB62
:10030000F2F302FB1C00303078541846491C0028D8
:10031000F3D123462A463046BDE8F04100F07DB9CE
:10032000000000002D0000002B0000002000000055
:100330002DE9F05F894604464FF0000ADFF824B14A
:10034000FB44C0F820A02046E168884700287DD003
:10035000252806D0D4E901219047206A401C20625C
:10036000F1E700255F462046E168884720280646D9
:1003700007DB312E05D2B81910F8200C08B105435F
:10038000F1E7A80701D525F00405C4F81CA0002753
:10039000C4F818A02A2E09D0304603F0E7F938B384
:1003A00004EB8708303EC8F8186019E059F8041BC0
:1003B000204604EB87029161E1688847012F0646D9
:1003C00018D1E069002820DA25F020051DE0D8F8D2
:1003D000180000EB800006EB40003038C8F8180029
:1003E0002046E1688847064603F0C0F90028EED1B0
:1003F000012F0AD02E2E08D12046E16888477F1CA5
:100400000646022F45F02005C4DBA069002803DA68
:10041000404245F00105A061E80701D025F0100534
:10042000A6B1A6F14100192802D8203645F400658E
:100430004A463146204625604D46FFF7B3FE60B17F
:10044000012807D0ED1D25F0070000E007E000F1CE
:10045000080978E705F1040975E730467AE7206A6C
:10046000BDE8F09FAE83000040EA010310B59B0792
:100470000FD1042A0DD310C808C9121F9C42F8D00E
:1004800020BA19BA884201D9012010BD4FF0FF30BF
:1004900010BD1AB1D30703D0521C07E0002010BDD5
:1004A00010F8013B11F8014B1B1B07D110F8013B61
:1004B00011F8014B1B1B01D1921EF1D1184610BD42
:1004C00010B5431C02E010F8011B71B18107FAD18D
:1004D0004FF0013202C88C1A8C4314EAC211F9D0D1
:1004E000C01A0A0603D0C01E10BDC01A10BD0A04EF
:1004F00001D0801E10BD0902FCD0401E10BD02F0CC
:10050000FF0343EA032242EA024200F01FBB7047A6
:1005100070477047704753EA020C00F069802DE97C
:10052000F04B4FF00006002B1FBFB3FA83F503FA20
:1005300005F424FA05F65E4012BF1643B2FA82F5BE
:1005400002FA05F4C5F120051EBF22FA05FC44EAB3
:100550000C04203556EA044C4FEA144418BF641CBE
:100560004FF000084FF00009904271EB030C39D3B3
:10057000002919BFB1FA81F701FA07F6B0FA80F73E
:1005800000FA07F6C7F120071EBF20FA07FC46EA6B
:100590000C062037B6FBF4FCA7EB0507103F07F06D
:1005A0001F0BCBF120060CFA0BFB2CFA06F644BF0E
:1005B000B3460026202FA4BF5E464FF0000B5BEA37
:1005C000060C08BF4FF0010B19EB0B09ABFB027CCB
:1005D00048EB0608C01B06FB02CC0BFB03CC71EBFF
:1005E0000C01C1E70B46024641464846BDE8F08B88
:1005F00013B54FF000004FF00001AFF30080BDE8ED
:100600001C40704710B500F0C5FA006810BD10B569
:10061000044600F0BFFA046010BD2DE9F0470D4616
:1006200099469246044600F124080168880604D5DC
:10063000E06921F01001216000E00120A84201DD05
:10064000471B00E00027A1697A1902EB0900081A8C
:10065000A0612078C00602D42046AFF300800026B7
:1006600008E0D4E901211AF806009047206A401CEE
:10067000761C20624E45F4DB2078C0060AD5204661
:10068000AFF3008006E0D4E9012130209047206AD2
:10069000401C2062381EA7F10107F4DC07E0D4E912
:1006A000012118F805009047206A401C2062281E8E
:1006B000A5F10105F3DC2046AFF3008020780006A9
:1006C00002D50220BDE8F0870120FBE770472DE945
:1006D000FF4F0C461E464FF0FF378BB0D2E90001AA
:1006E000DDF860800A908A46C1F30A5505B93D4697
:1006F000002108464FF00000BAF1000F00F440005E
:1007000005DA00EB80004FF4400101EA50004FEAA7
:100710009059B9F1010F00DDB9460A9850EA4A0034
:100720000ED044F61050A5F2FF3545432F14B8F112
:10073000000F1ED07542291E1EDDC9F100021CE00B
:10074000B8F1010F4FF0000001D0302103E0F24377
:1007500005E02154401CB042FBDB30460022002162
:1007600021540B99C1F80880C1E900200FB0BDE801
:10077000F08FBD1B6D1CDEE74A4600DA694206A811
:1007800000F092FA06AB93E8070003AB83E807009A
:1007900050460A9900F092FB8DE80700A0F5005042
:1007A0001F3800900398002D09DD42F21F014A46D0
:1007B000084403A90390684600F0F1FD08E0A0F5A5
:1007C00000504A461F3803A90390684600F0FBFD1D
:1007D0008DE807000004000C03D04FF0FF30410803
:1007E00000E01046B8F1000F03D000220092154639
:1007F0001EE0751E05D400F0D1F9303262556D1E31
:10080000F9D5B3460122084302D000227F1C04E040
:100810002078302801D100227F1E002A099786D037
:100820001DE0112D07DA00F0B9F9303262556D1C68
:1008300050EA0102F5D1084302D00098C8B10EE099
:100840000021681E05E0235C625C63542254401E54
:10085000491C8142F7DBAB46A81B401E09900020D3
:1008600004F80B000B98099AC0F80880C0E9002B27
:100870007CE711264FF0000859E72DE9F04F884634
:100880000446D21D22F0070191B0D1E90001CDE963
:100890000A0102F0EFFE02460B98C00F01D02D2096
:1008A00007E02068810701D52B2002E0202101EA22
:1008B000C000032A099001D0072A05DB0346414600
:1008C000204600F0B1F90BE12078800601D5E069FF
:1008D00000E00620B8F1650F814606D0B8F1660F3A
:1008E00018D0B8F1670F70D131E00020B9F1110FC5
:1008F000009001DB112301E009F101030AAA01A91B
:100900000CA8FFF7E4FEDDE90C70002609F10105F3
:10091000834647E001204B4600904FF000470AAA6B
:1009200001A90CA8FFF7D3FEDDE90DB00C995D46D7
:10093000002610B909F101000D18B9EB050003D428
:10094000C0F1FF3609F10105A5EB09002BE0B9F173
:10095000010F01DA4FF001090020B9F1110F0090E9
:10096000484601DD112300E003460AAA01A90CA8AC
:10097000FFF7ADFEDDE90C704D460026834620787A
:1009800000070AD4AB4500DA5D4601A8012D04DD5D
:10099000411911F8011C302907D04F4502DA17F12F
:1009A000040F04DA012082460FE06D1EEEE7002FEF
:1009B00002DCED1B3E4403E0781CA84200DD7D1CF8
:1009C000B81B00F1010A4FF000472078000703D45C
:1009D000AA4501DB4FF0FF3A0021B7F1004F0DF1BE
:1009E00043088DF8431024D002202B23002F01DA76
:1009F0007F422D230A21021EA0F1010000DC5FB11D
:100A000097FBF1FC97FBF1F201FB1C7C17460CF104
:100A1000300C08F801CDEEE7A8F101000370218841
:100A2000090501D5452100E06521A0F1010800F884
:100A3000011C09980FA9A1EB0807FF1D00B10120B7
:100A4000411901EBEA70A1693844081A401EA061FF
:100A50002078C00602D42046AFF30080099828B160
:100A6000D4E901219047206A401C20622078C0060A
:100A700022D52046AFF300801EE0002E04DBB345F4
:100A800002DD01A8805D00E03020D4E9012190471B
:100A9000206A401C2062761CAAF101005FEA000A6D
:100AA0000AD100F073F8C0680168405CD4E9012104
:100AB0009047206A401C2062281EA5F10105DCDC5D
:100AC00007E0D4E9012118F8010B9047206A401C87
:100AD0002062381EA7F10107F3DC2046AFF3008047
:100AE000032011B043E6000001694A1C0261087846
:100AF000704700B58FB0CDE901310021059105495E
:100B00007944CDE9031011466846FFF711FC0FB098
:100B100000BD0000E5FFFFFF0A6802F8010B0A6054
:100B200070470000074B70B50D467B44FFF7E1FFAF
:100B30000446284600F026F910B14FF0FF3070BD92
:100B4000204670BDFF3F00004FF000020429C0F0B6
:100B5000128010F0030C00F01B81CCF1040CBCF1EE
:100B6000020F18BF00F8012BA8BF20F8022BA1EB41
:100B70000C0100F00DB95FEAC17C24BF00F8012B25
:100B800000F8012B48BF00F8012B70470048704760
:100B90000802002000487047E801002030B5B0F19D
:100BA0000A024FEA900E71F100034EEA817EB0EB2B
:100BB0000E0061EB91014FEA101E4EEA017E10EB30
:100BC0000E0041EB11114FEA102E4EEA016E10EBB0
:100BD0000E0041EB11214FEA104E4EEA014E10EB90
:100BE0000E0041EB1141401841F100014FEAD000E5
:100BF00040EA41704FEAD10110EB80054FEA8104D1
:100C000044EA907444EB01046D1944EB0404521B54
:100C1000A3414FF0000348BF0A3200D530BD401C4D
:100C200041F1000130BD00002DE9F0411F460446AE
:100C300003260168072A01F4006004DB08B116A549
:100C400005E016A503E008B115A500E015A521F003
:100C500010002060A069C01EA0610FB1401EA061FD
:100C60002046AFF300804FB1D4E9012138469047C8
:100C7000206A401C2062C01C206206E0206AFAE75D
:100C8000D4E9012115F8010B9047761EF8D22046D1
:100C9000AFF30080BDE8F0814E414E006E616E0002
:100CA000494E4600696E66002DE9F04781461646BA
:100CB0008AB0334878440DC88DE80D003048784438
:100CC000801C03AC0DC884E80D0041F69B3008443D
:100CD000372190FBF1F290FBF1F5A5F1800501FBC6
:100CE00012041B3C02D56442012000E00020DFF822
:100CF00090A080460027FA44AAF1BE0A0DE0E00762
:100D000009D03246684607EB47010AEB810100F043
:100D10005AFB8DE8070064107F1C002CEFD1184FA0
:100D20007F44AC3F18E0E80714D007EB04100DF146
:100D3000180A90E80E008AE80E00C068F04201D15F
:100D400098190890324606A903A800F03CFB03ABB3
:100D500083E807006D10641C002DE4D1324669461B
:100D6000B8F1000F03A802D000F019FB01E000F079
:100D70002AFBC9E90001C9F808200AB0BDE8F087DC
:100D8000BC7B0000007B00F0800070474FF0000249
:100D900000B5134694469646203922BFA0E80C5071
:100DA000A0E80C50B1F12001BFF4F7AF090728BF4C
:100DB000A0E80C5048BF0CC05DF804EB890028BFC8
:100DC00040F8042B08BF704748BF20F8022B11F0F1
:100DD000804F18BF00F8012B704700000048704793
:100DE000E80100207546FFF7F9FFAE4605006946A9
:100DF000534620F00700854618B020B5FFF704FAE7
:100E0000BDE820404FF000064FF000074FF000080B
:100E10004FF0000B21F00701AC46ACE8C009ACE88C
:100E2000C009ACE8C009ACE8C0098D46704704466B
:100E3000AFF300802046FFF7D2F900004FF0013CED
:100E400050F8042B51F8043B9A4221D1A2EB0C0339
:100E5000934313EACC1317D150F8042B51F8043BF9
:100E60009A4215D1A2EB0C03934313EACC130BD196
:100E700050F8042B51F8043B9A4209D1A2EB0C0321
:100E8000934313EACC13DBD04FF00000704700BF50
:100E9000D01A01BAB1FA81F101F0180122FA01F079
:100EA000CB40C1F12001DBB2C0B2C01A2CFA01F371
:100EB000D11A914311EAC311E6D170475FEA400CA1
:100EC00008BF91F0000F4FEA8C234FEAC12243EA9A
:100ED00051514FEA1C5018BF00F5F0404FEA300066
:100EE00018BF41F000415FEA6C5C00F02980BCF162
:100EF000FF3F08BF40F080407047130C06BF12044C
:100F00004FF0100C4FF0000C130E04BF12020CF146
:100F1000080C130F04BF12010CF1040C930F04BF53
:100F200092000CF1020CD30F04BF52000CF1010C23
:100F300011464FF00002A0F11F00A0EB0C0070471B
:100F400011F0004F08BF704731F000413FF4D5AFBA
:100F50000B0C06BF09044FF0100C4FF0000C0B0EE9
:100F600004BF09020CF1080C0B0F04BF09010CF1BE
:100F7000040C8B0F04BF89000CF1020CCB0F04BFD3
:100F800049000CF1010CCCF12003A0EB0C0022FA7B
:100F900003F302FA0CF241EA030100F10100704789
:100FA00020F07F4C80EA030023F07F47ACEB07037F
:100FB00003F57C5300F0004003F1FF032DE9804965
:100FC0004FEA154B09B44FEA144325EA0B4E24EAC5
:100FD00003480FF2042606EB132749083E785FEA20
:100FE000320203FB0667C7F5000707FB06F64FEA68
:100FF00054374FEAD64606F1020607FB066CCCF1E1
:10100000005C4FEA1C472CEA074C07FB06F40CFB7C
:1010100006F504EB15464FEA961634BF00204FF054
:1010200000404FEAD13706FB07FC4FEA1C4C0CFB93
:101030000BF7D21B03FB0CF761EB07010CFB0EF760
:10104000B0EB074072EB17420CFB08F734BFA2EB82
:101050000742B2EB074261EB17414FEA0C444FEAFB
:10106000910706FB07FC4FEA1C4C0CFB0BF7B0EB9F
:10107000C74072EB573203FB0CF734BFA2EBC742F9
:10108000B2EBC74261EB57310CFB0EF7B0EBC70078
:1010900072EB57720CFB08F734BFA2EBC702B2EB3E
:1010A000C70261EB5771039F4FEA816141EA9211D8
:1010B00004EBCC044FEAD1374FEA826206FB07FC0F
:1010C00042EA90124FEA80604FEA1C4C0CFB0BF78F
:1010D000D21B03FB0CF761EB07010CFB0EF7B0EB27
:1010E000074072EB17420CFB08F734BFA2EB074234
:1010F000B2EB074261EB17414FEA8C554FEA91077B
:1011000004EB9C2406FB07FC4FEA1C4C0CFB0BF782
:10111000B0EBC74072EB573203FB0CF734BFA2EBC6
:10112000C742B2EBC74261EB57310CFB0EF7B0EB95
:10113000C70072EB57720CFB08F734BFA2EBC70273
:10114000B2EBC70261EB577115EB4C254FEA816199
:1011500041EA92114FEA82624FEAD13742EA901295
:1011600006FB07FC44F100044FEA80604FEA1C4C88
:101170000CFB0BF7D21B03FB0CF761EB07010CFB1D
:101180000EF7B0EB074072EB17420CFB08F734BFC9
:10119000A2EB0742B2EB074261EB174115EB1C15BE
:1011A0004FEA813141EA92414FEA823242EA90426B
:1011B0004FEA80304FEA0C7644F1000448EA0343DA
:1011C0004EEA0B484FF0000EB2EB080C71EB030730
:1011D00024BF624639464EEB0E0E4FF0000B00184E
:1011E000524149414BEB0B0BB2EB080C71EB03077F
:1011F0007BF1000B24BF624639464EEB0E0E4FF0DA
:10120000000B0018524149414BEB0B0BB2EB080CA1
:1012100071EB03077BF1000B24BF624639464EEBAE
:101220000E0E51EA020718BF46F0010616EB0E76C5
:1012300055F1000254F1000103D5BDE88901BDE874
:101240000088BDE88901BDE80048B619524141EB6C
:101250000101A3F10103704780807F7E7D7C7B7A52
:101260007978777676757473727171706F6E6E6D52
:101270006C6C6B6A6A6968686766666564646363F8
:1012800062616160605F5F5E5E5D5D5C5C5B5B5A7E
:101290005A595958585757565655555554545353EB
:1012A00052525251515050504F4F4F4E4E4D4D4D46
:1012B0004C4C4C4B4B4B4A4A4A4949494848484791
:1012C00047474746464645454544444444434343CF
:1012D0004342424242414141002B26D4770021D073
:1012E0001CB54FEA370703B44FF010004FF0100160
:1012F0004FF000000FBCBDE810400BF1010BBBF13B
:10130000010F08BF5FEA170722BF12F1010211F1B6
:1013100001014FF0004143F1000300F0004043EAB7
:1013200000007047F9D35708DAE746EA064613F19A
:10133000400F4FEA16461FDD13F1200FDFBF1643A3
:101340000A46002120335B42C8D0C3F1200746EA99
:10135000064602FA07F74FEA164646EA0706C3F1C1
:10136000200722FA03F201FA07F721FA03F14FF0FE
:10137000000342EA0702B1E746EA020646EA0646E9
:101380004FEA164646EA0106BCBF46EA0646360C58
:101390004FF000034FF000024FF000019EE72DE9EF
:1013A000C048934630B491E8380007C831EA400C91
:1013B00048BF34EA430C03D5FFF7F2FDFFF78CFF7B
:1013C000F0BCBDE800882DE9C048934630B491E8F0
:1013D000380007C810F0804F08BF13F0804F03D1CA
:1013E00000F005F8FFF778FFF0BCBDE8008820F0BA
:1013F0007F4780EA030023F07F4C07EB0C03A3F543
:101400007C5300F00040A3F1FE0392F0000F00F0C7
:10141000B38095F0000F00F077802DE901494FEA85
:1014200011404FEA144621EA004800FB06FC24EA7A
:10143000064708FB06F607FB08F800FB07F718EB62
:1014400006484CEB164C4FEA124B18EB07484FEA94
:1014500015464CEB174022EA0B4E0BFB06FC25EA27
:1014600006470EFB06F607FB0EFE0BFB07F71EEB0F
:10147000064E4CEB164C4FF000061EEB074E4CEBA5
:10148000174B18EB0B0840F1000018EB0E0B58EB54
:10149000000840F100008F1A4FF000013CBFC94323
:1014A000661B14BFB5EB040C00213CBFC943F61BFF
:1014B0004FEA17444EEA8E0E27EA04454FEA1C47CE
:1014C00004FB07622CEA074C05FB07F70CFB05F64B
:1014D00004FB0CFC16EB074642EB174216EB0C46DE
:1014E00042EB1C421BEB060658EB0202414146EA66
:1014F0009E0601D5BDE80189B619524141EB0101B3
:10150000A3F10103BDE801894FEA14454FEA1147F1
:1015100024EA054621EA074C05FB07F406FB07F71A
:101520000CFB06F105FB0CFC11EB074144EB1744E7
:101530004FEA124711EB0C4144EB1C4422EA074CE2
:1015400005FB07F206FB07F70CFB06F605FB0CFC98
:1015500016EB074642EB174216EB0C4642EB1C45D6
:101560006A1854F1000148BF7047B619524141EB67
:101570000101A3F10103704795F0000F37D04FEA46
:1015800011424FEA144721EA024624EA074C02FBC3
:1015900007F106FB07F70CFB06F402FB0CFC14EB4F
:1015A000074441EB17414FEA154714EB0C4441EB5C
:1015B0001C4125EA074C02FB07F506FB07F70CFB6D
:1015C00006F602FB0CFC16EB074645EB174516EB3F
:1015D0000C4645EB1C42121951F1000148BF7047FF
:1015E000B619524141EB0101A3F1010370474FEAE3
:1015F00014454FEA114724EA054621EA074C05FB4A
:1016000007F106FB07F70CFB06F24FF0000605FB9F
:101610000CFC12EB074241EB174112EB0C4251EB71
:101620001C4148BF7047921841EB0101A3F101032F
:10163000704700BFFEE770472DE9F047202000F01B
:101640003BFA002878D0EC480068002875D12020AB
:1016500000F02CFA022001F08FF84042E7490860C0
:10166000042001F089F8E6490860E64AE649E748BF
:1016700003F048FEE64AE749E74800F05FFCE74A26
:10168000E749E84800F032FCE048006805F0EAFD70
:10169000044622460B46E4A0FEF7EEFDE54801684D
:1016A000DA48006806F012F9E34908600021E248D0
:1016B000006806F0CFF802D2DF48006803E0DE4899
:1016C000006880F00040DD490860DD480078A8BB74
:1016D000DC48007890BBDC48007878BBDB480068C9
:1016E000D44908600021DA48006806F0B3F80ED249
:1016F000D748006805F0B6FD0446D64AD64B05F03B
:10170000C7FC064605F054F8D14908604FE00021B7
:10171000CF48006805F09EFF49D2CD48006805F02B
:10172000A1FD0446CB4ACC4B05F074F8064605F003
:101730003FF8C74908603AE05BE159E1FFE7C0487C
:10174000007801280ED1C248006805F08BFD0446E0
:10175000C04AC24B05F09CFC064605F029F8BC497E
:10176000086024E0B748007801280ED1B848006826
:1017700005F078FD0446B74AB84B05F04BF806462D
:1017800005F016F8B249086011E0AF48007801286A
:101790000DD1AF48006805F065FD0446AD4AAF4B7A
:1017A00005F076FC064605F003F8A9490860A6484E
:1017B0000078012814D1AA49A548006806F04AF823
:1017C00001D2A74809E0A749A148006805F042FFF7
:1017D00001D2A44801E09E4800689D49086013E0DA
:1017E000A1499B48006806F035F801D29E4809E0FF
:1017F0009E499748006805F02DFF01D29B4801E003
:1018000093480068924908609948007830B999482F
:10181000007818B900209849086016E094480078CC
:10182000012807D181079448006805F047FD9249D7
:1018300008600AE08F480078012806D181078E48A9
:10184000006806F043F88C4908608C498A480068B3
:1018500006F000F801D2894809E089498648006805
:1018600005F0F8FE01D2864801E08348006882490D
:1018700008607F48007838B97E48007820B94FF07A
:101880008040804908600AE079480078012803D048
:1018900078480078012802D100207A4908606C4815
:1018A000006805F06FFE0446554802685348016819
:1018B000204601F027FE744908605648B0F9000040
:1018C00005F09CFE05467048006805F097FE064648
:1018D00058480168304605F0F1FC04462A464B485A
:1018E0000168204601F094FE68490860624800687B
:1018F00005F048FE044621464548B0F9000001F0D5
:10190000E5FB634908606148D0F800A0084600681C
:10191000AAEB00005F4908600846006800280FDD58
:101920000846006805F0ADF980464FF033325A4B57
:1019300005F0BEF906460022584B04F06BFF0EE09E
:101940005448006805F09DF980464FF03332524B01
:1019500005F0AEF906460022504B05F099FB04460F
:1019600005F060F94E49086049480068504449490B
:1019700008600846006800280FDD0846006805F08A
:1019800080F980464FF03332434B05F091F906461B
:101990000022424B04F03EFF0EE03E48006805F096
:1019A00070F906464FF033323B4B05F081F9804623
:1019B00000223A4B05F06CFB044605F033F9394937
:1019C0000860374800F0F0F92C491C48006805F021
:1019D00041FF07D2012034490860002030490860E7
:1019E000304908602F4801682D48006800F002FA6D
:1019F00000BFBDE8F0870000148121429C00002058
:101A0000A00000208C00002088000020840000201E
:101A10009400002092000020900000209A000020F6
:101A2000980000209600002050697463683D256688
:101A30000D0A00004C000020800000207C000020E7
:101A4000FD000020FE0000200101002048000020D1
:101A5000500000209A9999999999C93F9999B93F4D
:101A600000002042000020C20000A0410000A0C1F0
:101A700000010020FF0000205400002000000C4264
:101A800000000CC268000020A8000020A400002074
:101A9000AC000020780000203333E33F00E0A54095
:101AA0007000002074000020B00000200149086090
:101AB0007047000014040140014600200022074B3B
:101AC0001B6803EA0102054B14331B680B4013B17A
:101AD0000AB1012000E0002070470000000401402E
:101AE000002123498279002A3AD00A461268036805
:101AF0009A430B461A600A1D126803689A430B1D2D
:101B00001A60027911440A6803681A430A60184A85
:101B10000832126803689A43154B08331A601A1D7D
:101B2000126803689A43124B0C331A604279102AE8
:101B30000ED11A1F126803681A430D4B08331A603E
:101B40001A1D126803681A43094B0C331A600DE022
:101B50000749427911440A6803681A430A6005E09C
:101B6000027911440A6803689A430A6070470000CA
:101B70000004014010B500F0FDFF01F055F810BD64
:101B800030B500228B071C0F0F2303FA04F20B4B16
:101B90008C1053F824309343084C8D1044F82530B2
:101BA00023468C1053F824308C07240F00FA04F4D9
:101BB0002343024C8D1044F8253030BD080001400D
:101BC0002DE9F041024600250026002000230024D4
:101BD000002791F803C00CF00F0591F803C00CF03A
:101BE000100CBCF1000F03D091F802C04CEA0505BF
:101BF00091F800C0BCF1000F31D0146800202BE038
:101C00004FF0010C0CFA00F3B1F800C00CEA030627
:101C10009E4220D183004FF00F0C0CFA03F7BC4317
:101C200005FA03FC4CEA040491F803C0BCF1280F48
:101C300006D14FF0010C0CFA00FCC2F814C00AE007
:101C400091F803C0BCF1480F05D14FF0010C0CFA1C
:101C500000FCC2F810C0401C0828D1D31460B1F8B1
:101C600000C0BCF1FF0F34DD546800202EE000F10D
:101C7000080C4FF0010808FA0CF3B1F800C00CEAA8
:101C800003069E4221D183004FF00F0C0CFA03F79C
:101C9000BC4305FA03FC4CEA040491F803C0BCF110
:101CA000280F05D100F1080C08FA0CF8C2F81480CE
:101CB00091F803C0BCF1480F07D100F1080C4FF0B8
:101CC000010808FA0CF8C2F81080401C0828CED38E
:101CD0005460BDE8F0810000F0B50A4600230024FE
:101CE0000021002500F00046B6F1004F02D11D4E44
:101CF000F16901E01B4E7168C0F3034583B200F443
:101D00004016B6F5401F08D121F07061154E766877
:101D100026F07066134F7E6012E000F48016B6F570
:101D2000801F06D1032606FA05F4A14341F0706135
:101D300006E0460D360103FA06F6B14341F0706144
:101D400022B1460D360103FA06F6314300F0004693
:101D5000B6F1004F02D1034EF16101E0014E716016
:101D6000F0BD0000000001400161704700BFFEE7C8
:101D700008B50121042000F085FC4FF48070ADF817
:101D8000000010208DF8030003208DF80200694642
:101D90000448FFF715FF4FF480710248FFF7E4FF96
:101DA00008BD000000080140104B02681B689A4201
:101DB00002DD0E4A126802600D4B02681B689A42EF
:101DC00002DA0B4A12680260084B0A681B689A42E2
:101DD00002DD064A12680A60054B0A681B689A42CF
:101DE00002DA034A12680A60704700000C00002003
:101DF0001000002070B505460C46002D07DD0120BF
:101E00001849086000201849C1F8BC0106E000200C
:101E10001449086001201449C1F8BC01284601F0AA
:101E200021FC86B23146114801F0C1F8002C08DDD2
:101E300001200C49091F086000200B49C1F8B001BE
:101E400007E000200749091F086001200649C1F882
:101E5000B001204601F006FC86B23146034801F08D
:101E6000A8F870BDB88121420080214200340140B1
:101E700008B50121082000F005FC4FF47040ADF8D2
:101E8000000010208DF8030003208DF80200694641
:101E90000148FFF795FE08BD000C01400EB5012179
:101EA000092000F0EFFB2020ADF8000003208DF8A2
:101EB000020048208DF8030069460B48FFF780FEBA
:101EC00005210120FFF75CFE2020019001208DF804
:101ED0000A0000208DF808000C208DF8090001A8E8
:101EE000FFF7FEFD0EBD0000000C01402DE9FC4196
:101EF00004460D4616466B4606223B21682000F03C
:101F00000EFA0746BFB99DF801009DF8001040EA9F
:101F1000012000B220809DF803009DF8021040EAE5
:101F2000012000B228809DF805009DF8041040EAC9
:101F3000012000B230803846BDE8FC812DE9FC412B
:101F400004460D4616466B4606224321682000F0E3
:101F5000E6F90746BFB99DF801009DF8001040EA78
:101F6000012000B220809DF803009DF8021040EA95
:101F7000012000B228809DF805009DF8041040EA79
:101F8000012000B230803846BDE8FC8110B5002049
:101F90000E4908600E48006820F470400C49086043
:101FA0000846006840F44050086000200949C1F824
:101FB000AC0100F011F801200449086000F00CF8B1
:101FC00000200449C1F8A80110BD0000A8812142E9
:101FD000040C01400080214210B5022001F0A6FF50
:101FE00010BD000008B50121082000F04BFB4FF4A4
:101FF0004060ADF8000010208DF8030003208DF83C
:10200000020069460448FFF7DBFD4FF440610248D7
:10201000FFF7AAFE08BD0000000C014010B500202B
:102020000E4908600E48006820F470400C490860B2
:102030000846006840F44050086001200949C1F892
:10204000AC01FFF7C9FF012004490860FFF7C4FF96
:1020500000200449C1F8A80110BD0000A881214258
:10206000040C01400080214270B50546002416484A
:10207000006820F47040144908600846006840F485
:1020800000400860002614E0002010490860FFF7B7
:10209000A3FF01200E49C1F8A8016006040E0B48F9
:1020A0007C38006808B1601CC4B2FFF795FF701C53
:1020B000C6B2082EE8DB15B9FFF7B0FF01E0FFF765
:1020C00065FF204670BD0000040C0140A88121423C
:1020D0000080214270B504461248006820F4704028
:1020E000104908600846006840F44050086000202D
:1020F0000D490860002512E0E0090B49091D086040
:102100006006040E01200949C1F8A801FFF764FF29
:10211000002005490860FFF75FFF681CC5B2082D65
:10212000EADB70BD040C0140A881214200802142FD
:1021300010B50E48006820F470400C49086008464D
:10214000006840F4405008600120094908600949CE
:10215000C1F8A801FFF740FF002005490860FFF71C
:102160003BFF00200349C1F8A80110BD040C014049
:10217000AC8121420080214210B50E48006820F455
:1021800070400C4908600846006840F44050086000
:102190000020094908600949C1F8AC01FFF71CFF9C
:1021A0000120054908600549C1F8AC01FFF714FF9B
:1021B00010BD0000040C0140A88121420080214292
:1021C00010B500241448006820F4704012490860DB
:1021D0000846006840F40040086001200F4908608C
:1021E000FFF7FAFE01200E49C1F8A801FFF7F4FE3F
:1021F00007E0601CC4B2FA2C03DDFFF7BDFF01202D
:1022000010BD0648803800680028F2D10349091F34
:10221000086000BFF4E70000040C0140AC812142DB
:102220000080214238B50121084600F02BFA012137
:10223000042000F027FA4FF40040ADF80000102011
:102240008DF8030003208DF8020069462248FFF74D
:10225000B7FC01212148FFF73FFD0020204908601D
:10226000FFF7C0FE80216B2000F0DDF8642001F054
:1022700037FE00216B2000F0D6F8032000F091F823
:10228000002000F086F8C82000F0B0F800213820C7
:1022900000F0C9F800216A2000F0C5F800212320D1
:1022A00000F0C1F88021372000F0BDF8752000F063
:1022B00019F80446682C0BD101216B2000F0B3F80B
:1022C00000216C2000F0AFF8642000F08FF801E0EE
:1022D000012038BD0020FCE700080140000230006A
:1022E000BC01214270B50446FFF722FFD020FFF762
:1022F000F1FEFFF765FF2046FFF7ECFEFFF760FFFA
:10230000FFF716FFD120FFF7E5FEFFF759FF00208A
:10231000FFF7AAFE0546FFF72FFF284670BD2DE9FF
:10232000F04106460F4614461D46FFF701FF002107
:1023300041EA4601C8B2FFF7CDFEFFF741FF20B1E9
:10234000FFF71AFF0120BDE8F0813846FFF7C2FE13
:10235000FFF736FFFFF7ECFE012101EB4601C8B2A3
:10236000FFF7B8FEFFF72CFF0DE0012C04D1002091
:10237000FFF77AFE287003E00120FFF775FE287052
:10238000601EC4B26D1C002CEFD1FFF7F5FE0020DB
:10239000D9E710B50446E006010E1C2000F043F812
:1023A00010BD10B50446E006010E1B2000F03BF8FE
:1023B00010BD70B504460025BC2C01DB012510E0E2
:1023C000622C01DB02250CE02A2C01DB032508E04E
:1023D000142C01DB042504E00A2C01DB052500E0B8
:1023E000062529461A2000F01EF870BD70B5044677
:1023F000B4F57A7F01DD4FF47A74042C00DA0424FA
:102400004FF47A7090FBF4F0401EC5B229461920B3
:1024100000F009F80546264604EBD671C1F34F00DB
:10242000FFF7C7FF70BD70B505460C46FFF780FE8D
:10243000D020FFF74FFEFFF7C3FE18B1FFF79CFE59
:10244000012070BD2846FFF745FEFFF7B9FE204684
:10245000FFF740FEFFF7B4FE18B1FFF78DFE012035
:10246000EFE7FFF789FE0020EBE72DE9F041054695
:102470000E4617469846FFF75BFE002141EA4501EC
:10248000C8B2FFF727FEFFF79BFE20B1FFF774FEEF
:102490000120BDE8F0813046FFF71CFEFFF790FEFB
:1024A00000240CE018F80400FFF714FEFFF788FE84
:1024B00018B1FFF761FE0120EBE7601CC4B2BC421B
:1024C000F0DBFFF759FE0020E3E700BFFEE77047AF
:1024D00008B54FF4A06000F063F817208DF80000F5
:1024E00001208DF8030000208DF801008DF8020016
:1024F000684600F01DF825208DF8000001208DF8B9
:10250000030002208DF801008DF80200684600F0FB
:102510000FF826208DF8000001208DF8030002201E
:102520008DF801008DF80200684600F001F808BD42
:1025300070B5002100230F22C47804B3154C246821
:1025400004F4E064C4F5E064210AC1F10403CA4064
:10255000447804FA03F184781440214309010E4CB5
:102560000678A155047804F01F050124AC400578D5
:102570006D11AD0005F1E025C5F8004109E00478D2
:1025800004F01F050124AC40044D0678761145F88F
:10259000264070BD0CED00E000E400E080E100E0CA
:1025A00002490143024A1160704700000000FA0529
:1025B0000CED00E030B589B004460D46012142F231
:1025C000110000F05FF84FF41070ADF82000032008
:1025D0008DF8220018208DF8230008A91E48FFF767
:1025E000EFFA05A800F068FD0020ADF81A00ADF87C
:1025F0001600ADF81850ADF8144005A9174800F0C2
:1026000009FD6020ADF804000020ADF80C000120A9
:10261000ADF806000020ADF80A0001A90F4800F04F
:1026200025FC01A90D4800F077FC01210B4800F0C2
:1026300079FB0821094800F065FC0821074800F0F3
:10264000A9FC0121054800F04FFB0121034800F0DF
:102650005DFB09B030BD00000010014000340140B6
:102660007047000029B1064AD2690243044BDA617F
:1026700004E0034AD2698243014BDA6170470000EB
:102680000010024029B1064A92690243044B9A6144
:1026900004E0034A92698243014B9A61704700004B
:1026A0000010024030B500210022002400232D4DEF
:1026B0006D6805F00C0121B1042905D0082923D14A
:1026C00005E0294D056022E0274D05601FE0254DFE
:1026D0006D6805F47012234D6D6805F48034022591
:1026E00005EB92421CB9214D554305600BE01D4D91
:1026F0006D6805F400351DB11C4D5543056002E0C1
:10270000194D5543056002E0174D056000BF00BF3D
:10271000144D6D6805F0F0010909154D6B5C0568F5
:10272000DD4045600F4D6D6805F4E061090A104D0C
:102730006B5C4568DD4085600A4D6D6805F460514D
:10274000C90A0B4D6B5C4568DD40C560054D6D6881
:1027500005F44041890B074D6B5CC568B5FBF3F58B
:10276000056130BD0010024000127A0000093D00F2
:10277000280000203800002070B50546022D02D048
:10278000042D14D10AE04FF0804000F0FBFA04B2AF
:1027900000214FF0804000F00FFC0AE0064800F0F6
:1027A000F1FA04B20021044800F006FC01E0002424
:1027B00000BF00BF204670BD00080040704710B544
:1027C00000F002F810BD00000CB500200190009050
:1027D0003348006840F480303149086000BF304819
:1027E000006800F4003000900198401C01900098AF
:1027F00018B90198B0F5A06FF1D12948006800F42C
:10280000003010B10120009001E0002000900098FD
:10281000012843D12348006840F010002149086096
:102820000846006820F0030008600846006840F091
:10283000020008601A484068194948600846406824
:1028400048600846406840F4806048600846406838
:1028500020F47C1048600846406840F4E810486066
:102860000846006840F08070086000BF0C480068AF
:1028700000F000700028F9D00948406820F00300FB
:10288000074948600846406840F00200486000BFC1
:102890000348406800F00C000828F9D10CBD000086
:1028A0000010024000200240042808D14FF0E0212F
:1028B000096941F004014FF0E022116107E04FF097
:1028C000E021096921F004014FF0E0221161704715
:1028D0007047000010B51348006840F0010011492E
:1028E000086008464068104908400E49486008469C
:1028F00000680E4908400B4908600846006820F44B
:10290000802008600846406820F4FE0048604FF4CC
:102910001F008860FFF753FF4FF000600449086014
:1029200010BD0000001002400000FFF8FFFFF6FE9F
:1029300008ED00E0F0B50C46154600220021068C9B
:102940004FF6FE773E400684028B018C4FF60C76E4
:1029500032407E1C06EA03162E433243104EB0422C
:102960000ED0104EB0420BD0B0F1804F08D00E4EBA
:10297000B04205D00D4EB04202D00D4EB04206D14D
:102980004FF6FD76314044F00106314305E04FF645
:10299000F576314044F00106314302830184F0BDF5
:1029A000002C0140003401400004004000080040B9
:1029B000000C0040F0B50C46154600220021002610
:1029C000078C4FF6EF7C07EA0C070784028B018C1B
:1029D0004FF6FF7707EA041640F6FF473A404FF6F6
:1029E000FF7707EA03373A434FF6FF7707EA0527F1
:1029F0003A43114FB8420ED0104FB8420BD0B0F14D
:102A0000804F08D00E4FB84205D00E4FB84202D0CA
:102A10000D4FB84206D14FF6DF77394046F0100728
:102A2000394305E04FF65F77394044F010073943EA
:102A300002830184F0BD0000002C014000340140FD
:102A40000004004000080040000C0040F0B50C46B7
:102A50001546002200210026078C4FF6FF6C07EA7E
:102A60000C070784828B018C4FF6FF7707EA042658
:102A70004FF60C773A404FF6FF7707EA03172F43DC
:102A80003A43114FB8420ED0104FB8420BD0B0F1BC
:102A9000804F08D00E4FB84205D00E4FB84202D03A
:102AA0000D4FB84206D14FF6FF57394046F48077B4
:102AB000394305E04FF2FF57394044F480773943FA
:102AC00082830184F0BD0000002C014000340140ED
:102AD0000004004000080040000C0040F0B50C4627
:102AE0001546002200210026078C4EF6FF7C07EADF
:102AF0000C070784828B018C4FF6FF7707EA0436B8
:102B000040F6FF473A404FF6FF7707EA05273A437A
:102B10004FF6FF7707EA03373A43114FB8420ED01A
:102B2000104FB8420BD0B0F1804F08D00E4FB842D2
:102B300005D00E4FB84202D00D4FB84206D14DF627
:102B4000FF77394046F48057394305E047F6FF5791
:102B5000394044F48057394382830184F0BD00003A
:102B6000002C0140003401400004004000080040F7
:102B7000000C004000B587B001210420FFF782FD62
:102B800001210846FFF76EFD0320ADF81800042070
:102B90008DF81B0006A91D48FFF712F803A800F0E6
:102BA0008BFA0020ADF80C00ADF81200ADF80E0065
:102BB0004FF6FF70ADF8100003A94FF0804000F011
:102BC00029FA00231A4603214FF0804000F0B9F89B
:102BD000684600F039F90A20ADF808006946400758
:102BE00000F0DCF80121880700F08AF80122114684
:102BF000900700F032F900214FF0804000F0DCF93E
:102C00000121880700F082F807B000BD00080140EC
:102C100010B50121880700F0B8F818B10121880724
:102C200000F071F810BD000000B587B00121082048
:102C3000FFF728FD01210420FFF714FDC020ADF8A7
:102C4000180004208DF81B0006A91E48FEF7B8FFE7
:102C500003A800F031FA0020ADF80C00ADF8120026
:102C6000ADF80E004FF6FF70ADF8100003A916483E
:102C700000F0D0F900231A460321134800F061F850
:102C8000684600F0E1F80A20ADF8080069460E48F1
:102C900000F084F847F6FF710B4800F08DF9012130
:102CA000094800F02DF801221146074800F0D5F838
:102CB0000021054800F080F90121034800F026F8C2
:102CC00007B000BD000C01400008004010B5012114
:102CD000044800F05AF818B10121024800F013F836
:102CE00010BD00000008004021B1028842F08002BF
:102CF000028004E002884FF67F731A40028070471A
:102D0000CA4302827047CA430282704721B10288D7
:102D100042F00102028004E002884FF6FE731A407E
:102D20000280704731B1B0F8442042F40042A0F86C
:102D3000442005E0B0F84420C2F30E02A0F844207D
:102D40007047F0B50C4615461E46002100220023B0
:102D50000189028B038C4FF6F877394021434FF6F7
:102D6000FC473A4040F201173A434FF6DD773B40CB
:102D70004FF6FF7707EA06172F433B430181028393
:102D80000384F0BD0146888C704702460020138AF8
:102D90000B400BB1012000E00020704770B50546E4
:102DA0000C46244885420ED0234885420BD0B5F10D
:102DB000804F08D02148854205D02148854202D065
:102DC0002048854200D100E000BF208850B9238907
:102DD000A28861882846FFF7ADFDE188284600F00B
:102DE000EDF825E0208804280AD12389A28861888B
:102DF0002846FFF7DFFDE188284600F0E8F817E0F5
:102E0000208808280AD12389A28861882846FFF7EC
:102E10001DFEE188284600F0E7F809E02389A28832
:102E200061882846FFF75AFEE188284600F0E5F859
:102E300070BD0000002C014000340140000400403F
:102E400000080040000C0040002101804180012169
:102E500081800021C180018170471AB183890B43B1
:102E6000838102E083898B438381704770B500249E
:102E700000220023058C4FF6FE7635400584028C37
:102E80008388048B4FF68F752C40B51E2C400D881F
:102E90002C43751E2A400D892A434D882A43144D20
:102EA000A8420BD0134DA84208D0134DA84205D01C
:102EB000124DA84202D0124DA84213D14FF6F77519
:102EC0002A404D892A434FF6FB752A408D882A43B4
:102ED0004FF6FF652B404FF6FF552B408D892B4356
:102EE000CD892B4383800483CD888586028470BD81
:102EF000002C0140003401400040014000440140EA
:102F0000004801400A460021018B4FF6F773194033
:102F1000114301837047000070B500220023002494
:102F2000058C4EF6FF7635400584038C8488828BB1
:102F300048F6FF752A404FF6FF452A400D884FF6A8
:102F4000FF7606EA05252A434DF6FF752B400D89CD
:102F500006EA05352B434D8806EA05352B430B4D14
:102F6000A84202D00A4DA84208D14BF6FF752C406A
:102F70008D894FF6FF7606EA85152C43848082837F
:102F8000CD88A0F84050038470BD0000002C0140A3
:102F9000003401400A460021818B4FF2FF73194033
:102FA0004FF6FF7303EA022319438183704781863A
:102FB0007047A0F84010704781847047028B4FF62D
:102FC000F3731A400283028B0A4302837047028B19
:102FD0004FF2FF331A400283028B4FF6FF7303EA6E
:102FE00001231A4302837047828B4FF6F3731A4012
:102FF0008283828B0A4382837047828B4FF2FF3336
:103000001A408283828B4FF6FF7303EA01231A432F
:1030100082837047002202881D4B98420ED01D4BC0
:1030200098420BD0B0F1804F08D01B4B984205D08E
:103030001A4B984202D01A4B984204D14FF68F7324
:103040001A404B881A43174B984207D0164B9842A8
:1030500004D04FF6FF431A40CB881A4302808B8876
:1030600083850B8803850A4B98420BD0094B984205
:1030700008D00E4B984205D00D4B984202D00D4B14
:10308000984201D10B7A03860123838270470000A6
:10309000002C0140003401400004004000080040C2
:1030A000000C0040001000400014004000400140AF
:1030B00000440140004801404FF6FF71818000212B
:1030C0000180C18041800172704700002DE9F04706
:1030D00005460C46204604F091FA82460C480168E9
:1030E000504604F0EBFA8046284604F087FA824600
:1030F00008480168504604F0E1FA8146414604F070
:10310000DDF8074604F03EFA06463046BDE8F08793
:103110006C0000206800002010B540F225511D48C9
:1031200000F028F910B31B4800F0E0F9C4B21A48C7
:10313000008800F40040C8B91748008800F48040B7
:1031400060B10A2C03D000201349088020E0124807
:10315000008840F400401049088019E00D2C06D189
:103160000D48008840F480400B49088010E00A4870
:103170000088C0F30D0009490C5407480088401C22
:103180000549088008460088C72801DD002008801E
:1031900010BD000000380140440000200401002060
:1031A00010B540F22551484800F0E4F8002820D03E
:1031B000454800F09BF90446224644A14448FDF7E7
:1031C00067F8434800F0ACF84148002101604160D5
:1031D0000181302C0ED13FA000F0A2F800203E4922
:1031E00008703E4908703E4908703E4908703E49E3
:1031F000087068E0312C0FD13CA000F091F801205C
:10320000354908700020354908703549087035493E
:1032100008703549087056E0322C10D134A000F007
:103220007FF800202C49087001202C4908700020EC
:103230002B4908702B4908702B49087043E0332C48
:1032400010D12CA000F06CF800202349087023490D
:103250000870012022490870002022490870224984
:10326000087030E0342C10D123A000F059F8002071
:10327000194908701949087019490870012019493D
:1032800008700020184908701DE0352C0FD11BA0D4
:1032900000F046F8002010490870104908701049E5
:1032A00008701049087001200F4908700BE009A050
:1032B00000F036F8002008490870084908700849ED
:1032C00008700849087010BD0044004025640000E3
:1032D000DC01002030000000FD000020FE00002086
:1032E000FF0000200001002001010020310000004B
:1032F0003200000033000000340000003500000000
:1033000010B504462146054800F0F5F800BF4021FD
:10331000024800F022F80128F9D110BD0044004015
:1033200070B504462046FDF7CBF886B2002505E0CF
:1033300014F8010BFFF7E4FF681C85B2B542F7DB18
:1033400070BD21B1828942F40052828104E08289F9
:103350004DF6FF731A408281704702460020B1F596
:10336000007F00D100BF13880B400BB1012000E0AB
:103370000020704770B5024600240023002500207D
:1033800040F66A16B14200D100BFC1F3421501F008
:103390001F03012606FA03F3012D02D1968933405B
:1033A00006E0022D02D1168A334001E0968A3340AE
:1033B0000C12012606FA04F41688344013B10CB13D
:1033C000012000E0002070BDF0B503460024002677
:1033D0000025002040F66A17B94200D100BF184608
:1033E000C1F3421401F01F06012707FA06F5012C6C
:1033F00001D10C3004E0022C01D1103000E0143077
:103400001AB107682F43076002E00768AF430760FF
:10341000F0BD00002DE9F04786B005460E460024B9
:10342000A24600BFA1460027B08900B100BF2F46C9
:103430002C8A4CF6FF700440F08804432C82AC893F
:103440004EF6F3100440B08831890843718908436F
:103450000443AC81AC8A4FF6FF400440B08904437A
:10346000AC8201A8FFF71EF91F48874202D1DDF8A0
:1034700010A001E0DDF80CA0A88900F4004040B1E4
:103480000AEBCA0000EB0A1031684900B0FBF1F802
:1034900007E00AEBCA0000EB0A1031688900B0FBB4
:1034A000F1F86420B8FBF0F004012009642101FB6D
:1034B0001089A88900F4004040B1322000EBC90017
:1034C000B0FBF1F000F00700044308E0322000EB0D
:1034D00009106421B0FBF1F000F00F0004432C81CF
:1034E00006B0BDE8F087000000380140014688883A
:1034F000C0F308007047C1F308028280704700BF24
:10350000FEE700002DE9F84F04460D461646364FFB
:10351000A819001B354908603548006804F06EF8AA
:103520008346394604F0CAF881463048006804F002
:1035300065F8834639464FF07E5004F0C7F9594686
:10354000009004F0BBF88246494603F0B7FE80467F
:1035500004F018F827490860084600682449086004
:10356000254800682349096808442349086008463B
:103570000068B0F5FA5F02DD4FF4FA5008E01E482B
:10358000006810F5FA5F01DA1C4801E01A4800688B
:10359000194908601A480068012803D10020086012
:1035A000174908601448006804F028F88346154855
:1035B0000168584604F082F881460E48006804F01D
:1035C0001DF8834610480168584604F077F8824693
:1035D000494603F073FE804603F0D4FF0B490860B0
:1035E00008460068BDE8F88F3333333FC000002041
:1035F000B8000020C4000020B4000020C0E0FFFF9D
:10360000B00000206400002060000020BC0000200A
:103610002DE9F05F05460E4614460021204604F0D1
:1036200055F983460D480168584604F047F881462D
:103630003146284604F03FF9834609480168584658
:1036400004F03CF88246494603F038FE804603F019
:1036500099FF07463846BDE8F09F00005C00002057
:10366000580000200146002901DD0A4600E04A42D8
:1036700010467047490050EAC12018BF04204A0D87
:1036800018BF40F0010040F2FF72B2EB515F08BF7B
:1036900040F00200012808BF052070472DE9F041E5
:1036A0004F1E00EBC7010446D1E9000115461E4636
:1036B00037F006020DD02A46334603F0F9FA7F1E92
:1036C00004EBC703D3E9002303F0A4F837F00602A4
:1036D000F1D1022F25D0042F13D0062F18BFBDE83B
:1036E000F0812A46334603F0E3FAD4E90A2303F0D3
:1036F00091F82A46334603F0DBFAD4E9082303F0B5
:1037000089F82A46334603F0D3FAD4E9062303F0B6
:1037100081F82A46334603F0CBFAD4E9042303F0B8
:1037200079F82A46334603F0C3FAD4E9022303F0BA
:1037300071F82A46334603F0BBFAD4E90023BDE80A
:10374000F04103F067B8012204F069B903F062B8F0
:10375000002213461046114603F00CB9024A00201D
:10376000110704F05CB9000001FDFFFF30380A28A2
:1037700001D2012070470020704700BF7047000051
:103780002DE9FE4F06460F460025684601F0DCF99C
:10379000002442E056F8240057F82410A0EB010A58
:1037A000BAF1000F01DB514601E0CAF10001084601
:1037B00003F024FF83464FF08F4103F0EDFD804678
:1037C0005DF82400002103F0A9FE16D05DF8241056
:1037D000404603F0E1FD82464FF07E5104F076F85A
:1037E000814629F0004A0F48416A504604F032F8F9
:1037F00012D20120A04005430EE00A48C1694046AC
:1038000003F028FF05D30748016A404604F022F878
:1038100002D20120A0400543641C032CBADB2846D9
:10382000BDE8FE8FD47A00082DE9F04D8D4F21F0D0
:10383000004A86B005460C46BA452ADBAAEB0700CB
:1038400028430AD08848824501DC1AD1CDB106B0A0
:103850002846BDE8F04DFFF776BF844A844B2846E2
:1038600003F026FA07460E46824A834B2846214635
:1038700003F01EFA06B03A463346BDE8F04D02F0BA
:10388000C9BF0120FCF7C3FE06B0BDE8F04DFFF74D
:103890005FBF7A48824542DABAF1795F0BDA28468F
:1038A000FFF7E8FE042808BFFFF758FF284606B0D8
:1038B0002146BDE8F08D2A460B46104603F0F8F984
:1038C000834602466E480E460B4606217844FFF7B3
:1038D000E5FE5A46334603F0EBF9804669488A46CE
:1038E0005A46334604217844FFF7D8FE5A463346F9
:1038F00003F0DEF900223B4602F08CFF02460B4645
:103900004046514603F036F82A46234603F0D0F9E4
:1039100006B02A462346BDE8F04D02F07BBF28469C
:1039200024F0004100223D463B4603F0BFFA4FF031
:10393000FF3204F074F80646024653480F460B4621
:1039400006217844FFF7AAFE32463B4603F0B0F961
:10395000CDE900014D4832463B4604217844FFF74B
:103960009DFE32463B4603F0A3F900222B4602F0AF
:1039700051FF834602913046394602F049FE8046A7
:1039800043480D46504517DCDDE900015A46029BCD
:1039900002F0F0FF42462B4603F08AF942462B46DE
:1039A00002F038FF012204F03AF8304A304B03F0BD
:1039B0006FFB304A304B4CE04FF0000A52460B464A
:1039C000404602F027FFCDE9031052462B46104631
:1039D000194603F06DF932463B4603F067FADDE91C
:1039E000033202F0C7FF06460F46DDE900015A46E2
:1039F000029B02F0BFFF8346009101223046394608
:103A000004F00DF8194A1A4B03F050FA06460F4617
:103A100001224046294604F002F85A46009B03F072
:103A200047F932463B4603F033FB06460F46012278
:103A30005046294603F0F3FF0E4DDFF858802A4622
:103A4000434603F033FA32463B4603F02FFA2A4648
:103A5000434603F02BFA002CD8BF81F0004106B09A
:103A6000BDE8F08D0000F03F0000F07F075C1433EC
:103A700026A6913C182D4454FB21F93F0000E03F5D
:103A8000384E00004E4E0000C24D0000D84D0000E0
:103A90003333EF3FFB21E93F2DE9F84F04460D4654
:103AA00021F0004000917349814211DC7249884243
:103AB00001DC06D12CB120462946BDE8F84FFFF7BE
:103AC00042BE6E48002DCCBF6D496E49BDE8F88FEF
:103AD0006D49814211DD6D498142D8BF4FF0FF36FB
:103AE0006DDD20462946FFF7C5FD042808BFFFF716
:103AF00035FE20462946BDE8F88F6549654F25F01B
:103B00000045814233DD6449814219DD0026324699
:103B10004FF080432046294602F07CFE80468A46CC
:103B200001222046294603F07AFF00223B4603F09B
:103B3000AFFA4246534602F01DFF04460D463EE0F2
:103B400001260022BA463B462046294602F062FE84
:103B500080460F46002253462046294603F098FA35
:103B600042463B4602F006FF04460D4627E04B491D
:103B700081421BDDDFF828A10226002253462046A1
:103B8000294603F095F800223B4602F043FE8046AA
:103B90000F46002253462046294603F079FA424652
:103BA0003B4602F0E7FE04460D4608E003262246A7
:103BB0002B4600203B4902F0DDFE04460D4622461E
:103BC0002B461046194603F073F88B468246024690
:103BD0000B4603F06DF807460246334888460B460D
:103BE00006217844FFF75AFD52465B4603F060F821
:103BF00082462E488B463A46434605217844FFF7D5
:103C00004DFD3A46434603F053F802460B46002E5C
:103C1000504659460CDA02F0FDFD22462B4603F0D1
:103C200047F801B022462B46BDE8F04F03F03EB9FD
:103C300002F0F0FD22462B4603F03AF81C4A7A4483
:103C400002EBC603D3E9002303F022FA22462B46F7
:103C500003F01EFA174A7A4402EBC603D3E90023A5
:103C600003F024F9009A002AB8BF81F00041BDE8B2
:103C7000F88F0000000010440000F07F182D44541D
:103C8000FB21F93FFB21F9BF0000DC3F0000203E93
:103C90000000F33F0000F03F0000E63F00800340DB
:103CA0000000F83F0000F0BFDA4B0000984B000026
:103CB000364B0000FE4A00002DE9F04D9446CCF151
:103CC000000423F000464CEA0404524F46EAD47440
:103CD0009A46884621F00042BC4206D8454240EA56
:103CE000050442EAD474BC4204D9BDE8F04D6246F2
:103CF000FFF72CBDAAF14055A5F17F6555EA0C04EC
:103D00000BD0022404EAAA74434DDFF810E144EA20
:103D1000D87452EA000B04D00CE0BDE8F04DFFF778
:103D2000BBBE002C14BF012CBDE8F08D022C30D09E
:103D3000032C32D056EA0C0B0AD0BE4220D1BA4234
:103D400009D126F0804622F080423346114617E022
:103D500000291ADB25E0DFF8C8B0FB44002C04BFC3
:103D6000DBE90001BDE8F08D012C02BFDBE90001B9
:103D700081F00041BDE8F08D022C0AD0032C0CD05C
:103D8000BA4212D1B8F1000F0BDA23482549BDE839
:103D9000F08D28462449BDE8F08D28467146BDE8DF
:103DA000F08D1D482149BDE8F08D921B12153C2A6B
:103DB000C4BF19481D490EDCBAF1000FBEBF12F195
:103DC0003C0F0020014606DB624602F0D3FD21F0E5
:103DD0000041FFF761FE002C08BFBDE8F08D012C0B
:103DE00004BF81F00041BDE8F08D114A114B022C57
:103DF00007D003F04DF92A46BDE8F04D0A4B03F019
:103E000047B903F045F92A46BDE8F04D064B03F0EB
:103E10004DB800000000F07F182D4454FB2109C06C
:103E2000924A0000FB21F9BFFB210940FB21F93F29
:103E3000075C143326A6A13C2DE9F0410446E07846
:103E400000F0C006E07800F03F05607800F0010067
:103E500098B1EF102846E91705EB5171C910A5EB91
:103E6000C101491C01F0FF080B48006820B10A4855
:103E7000414602683846904700BF607800F008006D
:103E800030B10548406818B1B011034A51688847FD
:103E90000020BDE8F0810000CC01002010B56FF0DB
:103EA0000400FEF701FD0A4800680A49B0FBF1F082
:103EB000094908700846007800EB4001C1EBC010CA
:103EC0004FF6FF7101EAC0000449088010BD0000F0
:103ED0001400002000127A003C0000203E00002068
:103EE0000146114A12884A434FF0E0235A610022EA
:103EF0009A611A46126942F001021A6100BF4FF03E
:103F0000E022106900F001021AB100F48032002AA8
:103F1000F5D04FF0E022126922F001024FF0E023C9
:103F20001A6100229A6170473E0000200146114A42
:103F300012784A434FF0E0235A6100229A611A46F0
:103F4000126942F001021A6100BF4FF0E0221069CD
:103F500000F001021AB100F48032002AF5D04FF0CF
:103F6000E022126922F001024FF0E0231A610022E0
:103F70009A6170473C00002038B5044664B12020A7
:103F80008DF8000028208DF8010030208DF8020007
:103F900038208DF8030004E0A32204216846FCF7D2
:103FA000AEFA6A46042140F69E2002F05FFA01F064
:103FB00049FE38BD3EB5044602208DF80000CA20F7
:103FC0008DF80100E3208DF8020009208DF8030030
:103FD0006A460421682002F049FAA3208DF8000007
:103FE00004F0400048B1C0208DF80100C8208DF8D1
:103FF0000200C2208DF8030006E0A3208DF8010026
:104000008DF802008DF8030004F4C07048B1C4209C
:104010008DF80400CC208DF80500C6208DF8060030
:1040200006E0A3208DF804008DF805008DF8060049
:10403000A3208DF807008DF808008DF809006A4666
:104040000A2140F6A72002F011FA04F0030018B18B
:1040500020208DF8000002E0D8208DF800006A468C
:10406000012140F6B62002F001FA04F0200018B158
:10407000012000F0ADF802E0002000F0A9F804F4FF
:10408000C07008B304F4807060B1B2208DF80000F5
:104090008B208DF80100B6208DF802009B208DF852
:1040A00003000BE0B0208DF8000080208DF80100A7
:1040B000B4208DF8020090208DF803006A46042198
:1040C00040F6A22002F0D2F904F0010020B3F8205B
:1040D0008DF800006A4601214FF40B6002F0C6F92A
:1040E000FA21072000F02CFC072000F0F3FB012050
:1040F00000F013FC642000F0F3FC4FF4FA7000F0C1
:1041000002FDC821304800F0A3FB282000F0BCFBD2
:104110000A2000F0CCFB08E0D8208DF800006A46A9
:1041200001214FF40B6002F0A1F904F0020018B174
:10413000D9208DF8000002E0D8208DF800006A46F2
:10414000012140F23D7002F091F904F0040018B131
:10415000012000F069F802E0002000F065F804F0AA
:10416000100018B10120FFF707FF02E00020FFF761
:1041700003FF44F008001549488101F063FD002069
:104180001249887304F0400018B10846807B801DF6
:10419000887304F4C07020B10C48807B801D0B49EB
:1041A000887304F0140020B10848807B1030074960
:1041B000887304F0030020B10448807B001D03498C
:1041C000887300203EBD000009E3CA02CC01002034
:1041D0003EB504466CB10EA1D1E900208968CDE955
:1041E000002002916A4609214FF4976002F03EF9DF
:1041F0003EBD0AA2D2E900109268CDE90102009109
:104200006A4609214FF4976002F030F9F0E70000A8
:10421000B8AAB38DB4980D355D000000B8AAAAAA5B
:10422000B088C3C5C700000038B5044664B1C020DB
:104230008DF80000C2208DF80100C4208DF8020026
:10424000C6208DF8030004E08B2204216846FCF7A9
:1042500056F96A46042140F6982002F007F901F069
:10426000F1FC38BD10B5C8234FF48062024940F616
:10427000F63001F07BFB10BDFC7A00082DE9F04F11
:104280008DB00746884615469946DDE9166B002431
:10429000002030806B49887B5A4605A901F032FC2A
:1042A00018B1601E0DB0BDE8F08F6648807A00F04E
:1042B0001400002867D09DF8140000069DF8151022
:1042C00040EA01409DF8161040EA01209DF81710C1
:1042D000084328609DF8180000069DF8191040EA70
:1042E00001409DF81A1040EA01209DF81B10084378
:1042F00068609DF81C0000069DF81D1040EA014012
:104300009DF81E1040EA01209DF81F100843A86088
:104310009DF8200000069DF8211040EA01409DF81C
:10432000221040EA01209DF823100843E86004F1C0
:104330001000C4B22868001401906868001402904C
:10434000A86800140390E8680014049001984043A2
:10435000029901FB0100039901FB0100049901FB93
:10436000010ABAF1706F02DBBAF1885F05DD01F076
:1043700069FC00203080401E94E7B6F9000040F44C
:104380008070308000BF2F48807A00F0400020B35A
:1043900005A9601C085C095D40EA012000B2A8F88C
:1043A000000005A9E01C095C05AAA01C105C41EAFC
:1043B000002000B2A8F8020005A9601D095C201DBC
:1043C000105C41EA002000B2A8F80400A01DC4B2AD
:1043D000B6F9000040F0080030801A48408900F427
:1043E000C07008B305A9601C085C095D40EA0120A3
:1043F00000B2388005A9E01C095C05AAA01C105C6D
:1044000041EA002000B2788005A9601D095C201DEA
:10441000105C41EA002000B2B880A01DC4B2B6F919
:10442000000040F0700030800648807A00F0030001
:1044300018B105A90819FFF7FFFC484600F028FF4E
:1044400000202FE7CC01002070B588B0064601A8F7
:1044500001F0E0F8BDF804000021C90341EA50452D
:10446000C4034448007A00F0030056F82000059089
:104470004048007A00F0040010B1059840420590D1
:104480003C48007AC0F3C10056F820000690394835
:10449000007A00F0200010B106984042069035489E
:1044A000007AC0F3811056F8200007903148008947
:1044B00000F4807010B10798404207900598C1172A
:1044C000A0FB042301FB043100FB0510810041EA3D
:1044D000927005900698C117A0FB042301FB0431DC
:1044E00000FB0510810041EA927006900798C11701
:1044F000A0FB042301FB043100FB0510810041EA0D
:10450000927007900598000E8DF808000598000C31
:104510008DF809000598000A8DF80A000598C0B2C8
:104520008DF80B000698000E8DF80C000698000C14
:104530008DF80D000698000A8DF80E000698C0B29E
:104540008DF80F000798000E8DF810000798000CEA
:104550008DF811000798000A8DF812000798C0B274
:104560008DF8130002AA0C214FF4257001F07EFF94
:1045700008B070BDCC01002030B585B0044616A24D
:1045800007CA02AB07C3C82C03DD4FF0FF3005B0EC
:1045900030BDC82090FBF4F0401E85B2280A8DF88B
:1045A0000000E8B28DF801006A46022140F21620B0
:1045B00001F05CFF10B14FF0FF30E8E702AA0C21D8
:1045C00040F6C12001F052FF10B14FF0FF30DEE79E
:1045D000044884810020DAE7FEF2ABC4AAF1DFDFF1
:1045E000BBAFDFDFCC0100201FB504464848007A8E
:1045F00000F0030054F8200001904548007A00F0D4
:10460000040010B10198404201904148007AC0F383
:10461000C10054F8200002903D48007A00F02000CC
:1046200010B10298404202903948007AC0F38110DC
:1046300054F8200003903648008900F4807010B1CF
:104640000398404203903349019880FB0101800F99
:1046500040EA810001902F49029880FB01108200FE
:1046600042EA917002902B49039880FB011082006E
:1046700042EA917003900198000E8DF800000198B5
:10468000000C8DF801000198000A8DF802000198D5
:10469000C0B28DF803006A4604214FF4747001F033
:1046A000E5FE18B14FF0FF3004B010BD0298000EC7
:1046B0008DF800000298000C8DF801000298000AA5
:1046C0008DF802000298C0B28DF803006A460421FA
:1046D0004FF4757001F0CAFE10B14FF0FF30E3E700
:1046E0000398000E8DF800000398000C8DF801006F
:1046F0000398000A8DF802000398C0B28DF80300F9
:104700006A4604214FF4767001F0B0FECCE7000059
:10471000CC01002009E3CA0210B586B0044647A0C8
:104720000068039046A00068029046A000680190CF
:1047300045A00068009004F0030003A9085C8DF810
:10474000140003A8C4F3C101405C8DF8150003A850
:10475000C4F38111405C8DF8160004F0030002A937
:10476000085C8DF8100002A8C4F3C101405C8DF80C
:10477000110002A8C4F38111405C8DF8120005AA53
:10478000032140F2264001F071FE18B14FF0FF30D6
:1047900006B010BD04AA032140F22A4001F066FED3
:1047A00010B14FF0FF30F3E70198059000980490A6
:1047B00004F0040058B19DF8140040F001008DF899
:1047C00014009DF8100040F001008DF8100004F076
:1047D000200058B19DF8150040F001008DF815003B
:1047E0009DF8110040F001008DF8110004F4807074
:1047F00058B19DF8160040F001008DF816009DF8A4
:10480000120040F001008DF8120005AA03214FF4B8
:10481000886001F02BFE10B14FF0FF30B8E704AA1A
:10482000032140F2314001F021FE10B14FF0FF3082
:10483000AEE7064804810020AAE700004CCD6C00DA
:104840000CC92C003656760026466600CC010020A6
:10485000F8B505460E464FF47A7095FBF0F000FB74
:1048600006F4200E8DF80000200C8DF80100200ABF
:104870008DF80200E0B28DF803006A4604214FF47F
:10488000AE7001F0F3FDF8BD38B50446052094FB89
:10489000F0F084B220128DF80000E0B28DF8010033
:1048A0006A4602214FF4AD7001F0E0FD38BD38B525
:1048B0000446052094FBF0F084B220128DF800002D
:1048C000E0B28DF801006A4602214FF4AC7001F0AD
:1048D000CDFD38BD38B504460020009004F001003D
:1048E00020B19DF8000040F03000009004F002007C
:1048F00020B19DF8000040F00C00009004F004008E
:1049000020B19DF8000040F0030000906A460121AC
:104910004FF4A47001F0AAFD38BD38B50446012C4F
:1049200001DA012402E0042C00DD0424601EC0B280
:1049300000906A46012140F24F1001F097FD38BD0A
:104940002DE9FC4706460F4606F0070010B1B7F503
:10495000C86F03DD4FF0FF30BDE8FC87384602F03A
:1049600065FE8146594902F017FD8046684600F011
:104970002BFE9DF80000022806D0042816D0082837
:1049800026D0102848D135E04FF08D41404602F046
:1049900095FE814602F012FE84B24D49404602F077
:1049A0008DFE814602F00AFE85B238E04FF08C4160
:1049B000404602F083FE814602F000FE84B2454983
:1049C000404602F07BFE814602F0F8FD85B226E00B
:1049D0004FF08B41404602F071FE814602F0EEFD41
:1049E00084B23D49404602F069FE814602F0E6FD90
:1049F00085B214E04FF08A41404602F05FFE8146E6
:104A000002F0DCFD84B23549404602F057FE814693
:104A100002F0D4FD85B202E04FF0FF309CE700BF0A
:104A200020128DF80400E0B28DF8050028128DF8F0
:104A30000600E8B28DF8070006F00100A0B101AA57
:104A400002214FF4EA7001F011FD10B14FF0FF3078
:104A500082E70DF1060202214FF4927001F006FD8B
:104A600010B14FF0FF3077E706F00200A0B101AAC5
:104A700002214FF4EC7001F0F9FC10B14FF0FF305F
:104A80006AE70DF1060202214FF4947001F0EEFC8A
:104A900010B14FF0FF305FE706F00400A0B101AAAB
:104AA00002214FF4EE7001F0E1FC10B14FF0FF3045
:104AB00052E70DF1060202214FF4967001F0D6FC88
:104AC00010B14FF0FF3047E7002045E700004843B2
:104AD000000040460000C045000040450000C044C2
:104AE00038B50446052094FBF0F085B228128DF805
:104AF0000000E8B28DF801006A4602214FF4EF7021
:104B000001F0B4FC38BD38B50446052094FBF0F044
:104B100085B228128DF80000E8B28DF801006A46CF
:104B200002214FF4ED7001F0A1FC38BD00BF054A31
:104B3000128802F04002002AF9D0C2B2014B1B1DBC
:104B40001A807047003801407CB5054628494968FD
:104B5000087801AB04220D21FDF7E1FB08B1072025
:104B60007CBD9DF80700C0F301109DF8041001F012
:104B7000E00140EAE1008DF800009DF80700C0F375
:104B800081009DF8051001F0E00140EAE1008DF898
:104B900001009DF8070000F003009DF8061001F0E9
:104BA000E00140EAE1008DF8020000241CE01DF85D
:104BB000040018B9002045F8240013E00D4845F81A
:104BC000240006E055F824000B4902F077FD45F873
:104BD00024001DF80400401EC0B20DF80400002897
:104BE000F0D100BF601CC4B2032CE0DB0020B7E7AB
:104BF000C80000207B14AE3E1D5A843F2DE9F04FC3
:104C000087B005460C46914601208DF81000002023
:104C10008DF81100FE4A1268917CFD4A52681078A6
:104C200004AB0222FDF721FC20B14FF0FF3007B0AA
:104C3000BDE8F08FC820FFF753F900208DF8100071
:104C4000F34A1268D17BF24A5268107804AB012211
:104C5000FDF70BFC10B14FF0FF30E8E7EC4A1268AB
:104C60005179EB4A5268107804AB0122FDF7FDFB45
:104C700010B14FF0FF30DAE7E54A1268917CE44A60
:104C80005268107804AB0122FDF7EFFB10B14FF032
:104C9000FF30CCE7DE4A1268D17DDD4A52681078D9
:104CA00004AB0122FDF7E1FB10B14FF0FF30BEE78E
:104CB000D74A12681179D64A5268107804AB01229B
:104CC000FDF7D3FB10B14FF0FF30B0E70C208DF8AB
:104CD0001000CF4A12681179CD4A5268107804AB9F
:104CE0000122FDF7C2FB10B14FF0FF309FE70F200C
:104CF000FFF7F6F8C648806A407A8DF81000C44A7B
:104D000012689178C24A5268107804AB0122FDF70C
:104D1000ACFB10B14FF0FF3089E7BD48806A007AE4
:104D20008DF81000BA4A12685178B94A5268107862
:104D300004AB0122FDF799FB10B14FF0FF3076E78D
:104D4000B9F1000F07D0B248806A807A40F0E000E5
:104D50008DF8100004E0AE48806A807A8DF810006B
:104D6000AB4A12689179AA4A5268107804AB0122C2
:104D7000FDF77BFB10B14FF0FF3058E7B9F1000FA2
:104D800007D0A348806AC07A40F0E0008DF8100098
:104D900003E0A048C07A8DF810009D4A1268D179CE
:104DA0009B4A5268107804AB0122FDF75EFB10B1FC
:104DB0004FF0FF303BE7B9F1000F02D0C820FFF7FA
:104DC0008FF840208DF81000914A12681179904AAE
:104DD0005268107804AB0122FDF747FB10B14FF089
:104DE000FF3024E778208DF81000894A1268517945
:104DF000874A5268107804AB0122FDF736FB10B1E8
:104E00004FF0FF3013E783498889FFF769F80020E6
:104E10008DF810007E4A126851797D4A52681078E8
:104E200004AB0122FDF721FB10B14FF0FF30FEE68D
:104E3000774A1268917A764A5268107804AB022257
:104E4000FDF76DFA10B14FF0FF30F0E69DF811005C
:104E50009DF8101040EA012B0C209BFBF0F0C6B22D
:104E60000020A86068602860A060606020608246C2
:104E700065E0674A1268D17A654A5268107804ABD7
:104E80000C22FDF74CFA10B14FF0FF30CFE69DF841
:104E900011009DF8101040EA012000B2ADF80800A2
:104EA0009DF813009DF8121040EA012000B2ADF801
:104EB0000A009DF815009DF8141040EA012000B288
:104EC000ADF80C00BDF90810206808442060BDF959
:104ED0000A10606808446060BDF90C10A0680844BE
:104EE000A0609DF817009DF8161040EA012000B25E
:104EF000ADF800009DF819009DF8181040EA012057
:104F000000B2ADF802009DF81B009DF81A1040EAAF
:104F1000012000B2ADF80400BDF900102868084473
:104F20002860BDF90210686808446860BDF9041083
:104F3000A8680844A8600AF1010000F0FF0AB24521
:104F400097DB3448D0F800C02868C117090441EA4B
:104F500010410704624600233846FBF768F93246E1
:104F60000023CDE90201FBF762F928602948D0F857
:104F700000C06868C117090441EA1041070462468D
:104F800000233846FBF753F932460023CDE90201EE
:104F9000FBF74DF968601F48D0F800C0A868C1173A
:104FA000090441EA10410704624600233846FBF732
:104FB0003EF932460023CDE90201FBF738F9A8603B
:104FC0001448D0F804C02168C817000440EA11480A
:104FD0000F046246002338464146FBF728F9324663
:104FE0000023CDE90201FBF722F920600948D0F83F
:104FF00004C06068C117090441EA10410704624611
:1050000000233846FBF713F93246002304E0000082
:10501000C8000020D47A0008CDE90201FBF707F9A7
:1050200060601148D0F804C0A068C117090441EAC3
:1050300010410704624600233846FBF7F8F8324671
:105040000023CDE90201FBF7F2F8A060A068002878
:1050500004DDA068A0F58030A06003E0A06800F542
:105060008030A0600020E2E5D47A00082DE9FC5FE2
:1050700006460F4600253D494968087801AB0322E2
:105080000D21FDF74CF910B10720BDE8FC9F9DF8FC
:10509000040000F01F008DF804009DF8050000F0EA
:1050A0001F008DF805009DF8060000F01F008DF828
:1050B0000600002456E056F8240057F82410A0EB10
:1050C000010BBBF1000F01DB594601E0CBF1000100
:1050D000084602F093FA4FF08F41009002F05CF91D
:1050E000814601A8005D68B32149086802F09EFA74
:1050F000834659461F4802F04FF9804604E01E4996
:10510000404602F0DBFA804601A8005D401EC0B2B6
:1051100001A908550028F2D14146484602F03CF961
:1051200083464FF07E5102F0D1FB82462AF0004BBD
:105130000F488169584602F08DFB12D20120A04031
:1051400005430EE00A480169484602F083FA05D398
:1051500007484169484602F07DFB02D20120A04089
:105160000543641C032CA6DB28468EE7C8000020FC
:10517000D47A000800B04C4554E3853F10B504468E
:10518000204600F00FF80346E01C00F00BF843EA5D
:10519000C00083B2A01D00F005F843EA801083B27E
:1051A000184610BD014691F90020002A01DD0020BB
:1051B0001EE091F90020002A01DA042018E091F99C
:1051C0000120002A01DD012012E091F90120002ACE
:1051D00001DA05200CE091F90220002A01DD02200D
:1051E00006E091F90220002A01DA062000E00720FB
:1051F0007047000000240025FEF750FEFDF768F917
:105200004FF4E13001F06EFA4FF4165001F026FA37
:10521000FDF708F800F088F9FCF740FEFCF7AAFC5F
:10522000FCF726FE41F61F410120FDF7C3F9FCF70C
:105230009FFD0CA0FBF720F80420FDF79DFA064621
:10524000314610A0FBF718F800BF04E04FF47A7065
:10525000FEF746FE641C032CF8DB02E0681C85B2F6
:1052600000BFFBE70D0ABEABD3A253544D3332BF90
:10527000AAB7A2B0E520B4AEBFDACAB5D1E90D0A2B
:105280000000000073706565643D25640D0A000030
:105290007047000070B50446002624F00104184849
:1052A00090F8240008B1002070BD1548807A10B92C
:1052B0004FF0FF30F8E71248057C807A2040104913
:1052C00008740846007CA04202D04FF0FF3600E090
:1052D000002614B90A48007D18B1012001F050F9E8
:1052E00002E0002001F04CF93CB100F0ABFC20B131
:1052F000034805744FF0FF30D6E73046D4E700008E
:10530000C80000202DE9F04F99B004460D4616461E
:105310004FF07E574FF000084FF000094FF0000AA1
:1053200012A813A918AB0EAACDE9001014A916A84B
:10533000FEF7A4FF18B1012019B0BDE8F08FBDF849
:105340004C0000F4807000287ED00E9802F056F9D0
:1053500083464FF09D4102F01FF807460F9802F078
:105360004DF983464FF09D4102F016F880461098A3
:1053700002F044F983464FF09D4102F00DF881465A
:10538000119802F03BF983464FF09D4102F004F87A
:10539000824639464FF0804002F090F94946059028
:1053A00002F08CF9414607904FF0404002F086F938
:1053B0005146059002F082F90690079901F07EFFB0
:1053C000834601F04FFFCDE90801FEF72DFA4FF0BB
:1053D0006632544BCDE90A0101F06AFCCDE90C01BB
:1053E00001F0E6F9206049464FF0804002F066F98E
:1053F0004946029002F062F9414604904FF0404065
:1054000002F05CF94146029002F058F903900499C9
:1054100002F05CFA83464FF07E5101F04FFF059099
:1054200001F020FFCDE9080139464FF0804002F03D
:1054300045F94146039002F041F9494604904FF086
:10544000804002F03BF900E068E05146039002F032
:1054500035F98346049901F031FF059001F002FF10
:10546000CDE90601DDE90823FEF726FC4FF06632A0
:105470002C4BCDE90A0101F01BFCCDE90C0101F038
:1054800097F928605146504602F018F949460490B1
:10549000484602F013F941460390404602F00EF9E7
:1054A00039460190384602F009F90090019901F05F
:1054B00005FF0290039902F009FA8346049902F06D
:1054C00005FA059001F0CEFECDE9080151463846B7
:1054D00002F0F4F849460490404602F0EFF80390D9
:1054E000049901F0EBFE4FF08041059002F0E6F8E0
:1054F000834601F0B7FECDE90601DDE90823FEF79A
:10550000DBFB4FF06632074BCDE90A0101F0D0FB1F
:10551000CDE90C0101F04CF9306001E002200BE70D
:10552000002009E766A64C4070B50024FCF75AFD40
:1055300000F024F9002840D1782000F02FFFC4B2F9
:105540000CB1012070BD7820FFF7A4FEC4B20CB1ED
:105550000220F7E7642000F0D3FEC4B20CB10320B0
:10556000F0E7FEF77FFEC4B20CB10420EAE715486D
:10557000FFF704FE0546FFF7CFF8C4B20CB10520D3
:10558000E0E740F27310FEF715FDC4B20CB106203F
:10559000D8E76420FEF7F0FFC4B20CB10720D1E7D2
:1055A00000F0A4FF04460CB10820CBE7012000F076
:1055B000A3FDC4B21CB10920C4E70A20C2E7002041
:1055C000C0E70000F400002001461148407A30B1E5
:1055D000012807D0022808D003280CD108E00220B7
:1055E00008700BE00420087008E00820087005E04F
:1055F0001020087002E04FF0FF30704700BF0448F1
:10560000C07C18B108784006000E08700020F4E74E
:10561000C800002001461348407A30B1012808D064
:1056200002280AD0032810D10BE04FF480400880F4
:105630000EE041F69C7008800AE04FF4805008802C
:1056400006E04FF40060088002E04FF0FF30704742
:1056500000BF0448C07C10B10888401008800020BA
:10566000F5E70000C800002001460248007C0870F1
:1056700000207047C800002001460F48007A30B172
:10568000012807D0022809D003280FD10AE0FA2008
:1056900008800EE04FF4FA7008800AE04FF47A7048
:1056A000088006E04FF4FA60088002E000200880DD
:1056B00000BF00BF00207047C800002001460E4810
:1056C000007A30B1012807D0022808D003280CD175
:1056D00008E00A4808600BE00948086008E009484B
:1056E000086005E00848086002E04FF0FF307047AE
:1056F00000BF0020FBE70000C800002000000343BB
:10570000000083423333034233338341014612485E
:10571000C07A082817D2DFE800F01704070A0D1036
:105720001318BC20088013E06220088010E02A20B3
:1057300008800DE0142008800AE00A20088007E0B5
:105740000520088004E000BF00BF0020088000BFE3
:1057500000BF002070470000C80000200146064836
:1057600090F8240010B14FF0FF3070470248C08914
:1057700008800020F9E70000C80000201CB5802048
:105780008DF80000654A1268917C644A526810786E
:105790006B460122FCF769FE10B14FF0FF301CBDD3
:1057A0006420FEF79DFB00208DF800005B4A126824
:1057B000917C5A4A526810786B460122FCF755FEDC
:1057C00010B14FF0FF30EAE7544A1268917D534A16
:1057D000526810786B460622FCF7A1FD10B14FF01D
:1057E000FF30DCE79DF80500C007400F9DF803106F
:1057F00001F0010140EA41009DF8011001F00101B2
:1058000040EA010494B1012C03D101214348C17441
:1058100031E0022C03D100214048C1742BE0214625
:105820003FA0FAF729FD4FF0FF30B8E73B4A126876
:10583000D1783A4A526810786B460122FCF76FFD26
:1058400010B14FF0FF30AAE79DF8000000F00F0400
:105850002CB93D48FAF710FD4FF0FF309FE7042CBC
:1058600006D13AA0FAF708FD01212C48C17402E0E4
:1058700000212A48C174FF2128488172FF2027494E
:105880000872FF2125484172C1724FF6FF71C18134
:10589000FF21017481740121017380F8221000211D
:1058A00080F82310417501751630016041608160F8
:1058B000163880F8241080F82510C1844FF4FA605F
:1058C00000F062FC10B14FF0FF3068E7022000F0FA
:1058D0002BFB10B14FF0FF3061E72A2000F0CEFC27
:1058E00010B14FF0FF305AE7322000F009FD10B13F
:1058F0004FF0FF3053E70020FFF7CCFC10B14FF022
:10590000FF304CE7002000F051FB10B14FF0FF30AA
:1059100045E7002000F042FD002040E7C8000020DD
:10592000556E737570706F7274656420736F6674F2
:10593000776172652070726F64756374207265762A
:105940002025642E0A0000008C88000848616C66DF
:105950002073656E736974697669747920706172F9
:105960007420666F756E642E0A0000002DE9F04306
:1059700085B005460E4690469946294890F8250080
:1059800020B14FF0FF3005B0BDE8F08316B94FF0FD
:10599000FF30F8E7002423E0281B102801DD102049
:1059A00000E0281B87B232193946204600F05EFD20
:1059B00010B14FF0FF30E6E701AA3946204600F06B
:1059C00001F910B14FF0FF30DDE730193A4601A977
:1059D000FAF74AFD10B16FF00100D4E7E01984B284
:1059E000AC42D9DB4FEA28208DF8000008F0FF0018
:1059F0008DF801000A4A1268917E094A52681078AF
:105A00006B460222FCF731FD10B14FF0FF30BAE7D0
:105A10000121034880F82510A0F826900020B2E765
:105A2000C800002038B50446282C02DD4FF0FF30B6
:105A300038BDDCB9002000F0EBFB00208DF8000041
:105A400007208DF801002E4A1268917C2C4A52687A
:105A500010786B460222FCF708FD10B14FF0FF30C2
:105A6000E6E70021264801750020E1E7012000F06B
:105A7000CFFB20208DF80000012C06D100208DF8EE
:105A80000100052000F0FAFB17E0052C06DC0120E0
:105A90008DF80100052000F0F1FB0EE0142C06DC6F
:105AA00002208DF801000A2000F0E8FB05E0032049
:105AB0008DF80100142000F0E1FB9DF801000721A2
:105AC00001EB8010C0B28DF801000D4A1268917C84
:105AD0000B4A526810786B460222FCF7C6FC10B1E4
